:100000000C942A000C9434000C9434000C943400AA
:100010000C9434000C9434000C9434000C94340090
:100020000C9434000C9434000C9434000C94340080
:100030000C9434000C9434000C9434000C94340070
:100040000C9434000C9434000C9434000C94340060
:100050000C94340011241FBECFE5D8E0DEBFCDBF25
:100060000E941E030C948B030C940000DF93CF932B
:1000700000D000D00F92CDB7DEB789836A834B835F
:100080008981282F30E03D832C838C819D818130B4
:10009000910509F447C02C813D81223031052CF4B3
:1000A0008C819D81009771F0CBC02C813D812230E5
:1000B000310509F467C08C819D818330910509F475
:1000C00091C0BEC08B818823A9F4AAE3B0E0EAE323
:1000D000F0E08081482F8A81282F30E081E090E095
:1000E000022E02C0880F991F0A94E2F7809584239C
:1000F0008C93A6C08B81813009F0A2C0AAE3B0E046
:10010000EAE3F0E08081482F8A81282F30E081E007
:1001100090E0022E02C0880F991F0A94E2F7842B08
:100120008C938EC08B818823A9F4A7E3B0E0E7E32A
:10013000F0E08081482F8A81282F30E081E090E034
:10014000022E02C0880F991F0A94E2F7809584233B
:100150008C9376C08B81813009F072C0A7E3B0E048
:10016000E7E3F0E08081482F8A81282F30E081E0AA
:1001700090E0022E02C0880F991F0A94E2F7842BA8
:100180008C935EC08B818823A9F4A4E3B0E0E4E300
:10019000F0E08081482F8A81282F30E081E090E0D4
:1001A000022E02C0880F991F0A94E2F780958423DB
:1001B0008C9346C08B81813009F042C0A4E3B0E04B
:1001C000E4E3F0E08081482F8A81282F30E081E04D
:1001D00090E0022E02C0880F991F0A94E2F7842B48
:1001E0008C932EC08B818823A9F4A1E3B0E0E1E3D6
:1001F000F0E08081482F8A81282F30E081E090E074
:10020000022E02C0880F991F0A94E2F7809584237A
:100210008C9316C08B81813099F4A1E3B0E0E1E3C7
:10022000F0E08081482F8A81282F30E081E090E043
:10023000022E02C0880F991F0A94E2F7842B8C9338
:100240000F900F900F900F900F90CF91DF91089526
:10025000DF93CF9300D000D0CDB7DEB789836A8318
:100260008981282F30E03C832B838B819C818130D6
:100270009105D1F02B813C81223031052CF48B810A
:100280009C81009761F01EC02B813C81223031059A
:1002900081F08B819C818330910581F013C0EAE36A
:1002A000F0E08A8180830EC0E7E3F0E08A818083FA
:1002B00009C0E4E3F0E08A81808304C0E1E3F0E078
:1002C0008A8180830F900F900F900F90CF91DF91D4
:1002D0000895DF93CF9300D000D00F92CDB7DEB753
:1002E00089836A834B838981282F30E03D832C8367
:1002F0008C819D818130910509F447C02C813D811D
:10030000223031052CF48C819D81009771F0CBC097
:100310002C813D812230310509F467C08C819D819B
:100320008330910509F491C0BEC08B818823A9F464
:10033000ABE3B0E0EBE3F0E08081482F8A81282F27
:1003400030E081E090E0022E02C0880F991F0A94ED
:10035000E2F7809584238C93A6C08B81813009F0CD
:10036000A2C0ABE3B0E0EBE3F0E08081482F8A81EC
:10037000282F30E081E090E0022E02C0880F991F04
:100380000A94E2F7842B8C938EC08B818823A9F486
:10039000A8E3B0E0E8E3F0E08081482F8A81282FCD
:1003A00030E081E090E0022E02C0880F991F0A948D
:1003B000E2F7809584238C9376C08B81813009F09D
:1003C00072C0A8E3B0E0E8E3F0E08081482F8A81C2
:1003D000282F30E081E090E0022E02C0880F991FA4
:1003E0000A94E2F7842B8C935EC08B818823A9F456
:1003F000A5E3B0E0E5E3F0E08081482F8A81282F73
:1004000030E081E090E0022E02C0880F991F0A942C
:10041000E2F7809584238C9346C08B81813009F06C
:1004200042C0A5E3B0E0E5E3F0E08081482F8A8197
:10043000282F30E081E090E0022E02C0880F991F43
:100440000A94E2F7842B8C932EC08B818823A9F425
:10045000A2E3B0E0E2E3F0E08081482F8A81282F18
:1004600030E081E090E0022E02C0880F991F0A94CC
:10047000E2F7809584238C9316C08B81813099F4A8
:10048000A2E3B0E0E2E3F0E08081482F8A81282FE8
:1004900030E081E090E0022E02C0880F991F0A949C
:1004A000E2F7842B8C930F900F900F900F900F908A
:1004B000CF91DF910895DF93CF9300D000D0CDB7D7
:1004C000DEB789836A838981282F30E03C832B83C0
:1004D0008B819C8181309105D1F02B813C81223030
:1004E00031052CF48B819C81009761F01EC02B811B
:1004F0003C812230310581F08B819C8183309105D4
:1005000081F013C0EBE3F0E08A8180830EC0E8E362
:10051000F0E08A81808309C0E5E3F0E08A8180838E
:1005200004C0E2E3F0E08A8180830F900F900F9087
:100530000F90CF91DF910895DF93CF9300D000D03B
:1005400000D0CDB7DEB789836A838981282F30E058
:100550003D832C834C815D814130510549F18C8173
:100560009D818230910534F42C813D812115310526
:1005700061F057C04C815D814230510561F18C8141
:100580009D8183309105D1F14CC0E9E3F0E0808199
:10059000282F30E08A81882F90E0A90102C055956C
:1005A00047958A95E2F7CA01582F51705B833AC08C
:1005B000E6E3F0E08081282F30E08A81882F90E008
:1005C000A90102C0559547958A95E2F7CA01582FAF
:1005D00051705B8327C0E3E3F0E08081282F30E097
:1005E0008A81882F90E0A90102C0559547958A9588
:1005F000E2F7CA01582F51705B8314C0E0E3F0E0CA
:100600008081282F30E08A81882F90E0A90102C0E4
:10061000559547958A95E2F7CA01582F51705B832B
:1006200001C002C08B818E838E8126960FB6F8940E
:10063000DEBF0FBECDBFCF91DF910895DF93CF9383
:1006400000D00F92CDB7DEB780E060E041E00E94BD
:10065000360080E061E041E00E94360081E060E029
:1006600040E00E94360081E061E040E00E943600F8
:1006700081E062E040E00E94360081E060E041E01D
:100680000E94690181E061E041E00E94690181E02E
:1006900062E041E00E94690181E060E00E949C020A
:1006A0008B8381E061E00E949C028A8381E062E0AA
:1006B0000E949C0289838B81882331F480E060E072
:1006C00041E00E94690108C08B81813029F480E0FB
:1006D00060E040E00E9469018A81882331F480E073
:1006E00061E041E00E94690108C08A81813029F4FB
:1006F00080E061E040E00E9469018981882361F621
:1007000080E060E041E00E94690180E061E041E05A
:0A0710000E946901C1CFF894FFCFE9
:00000001FF
